:1000000022C03CC03BC03AC039C036C337C036C03E
:1000100035C034C033C032C031C030C064C32EC01C
:100020002DC02CC02BC02AC029C028C027C026C084
:10003000CFC224C007070B070B0000000001070711
:100040000D0D0000010011241FBECFEFD4E0DEBF74
:10005000CDBF11E0A0E0B1E0EEE2F8E002C0059013
:100060000D92A430B107D9F711E0A4E0B1E001C0CE
:100070001D92A733B107E1F70ED3D7C3C1CF2B9899
:1000800023980895FC0180910401882361F18091F7
:100090002201873049F480912301909124018F7DC2
:1000A0009093240180932301809122018083809189
:1000B0002301909124019283818380912501909165
:1000C00026019483838380912701858310922601E2
:1000D0001092250110922401109223011092270101
:1000E0001092040181E00895982F609110017091A1
:1000F0001A01671738F180911B01681718F5809174
:100100002001292F30E040912801509129018823B6
:1001100081F0862F90E0871B910902C0220F331FC8
:100120008A95E2F7422B532B5093290140932801E3
:1001300033C0440F551F242B352B309329012093B6
:1001400028012AC070911C01671730F180911D01B0
:10015000681710F580912001292F30E040912A0185
:1001600050912B01882381F0862F90E0871B910905
:1001700002C0220F331F8A95E2F7422B532B509374
:100180002B0140932A0108C0440F551F242B352B07
:1001900030932B0120932A016F5F60931001089523
:1001A00093B180910401882309F00FC2292F287090
:1001B00080910F01882381F590910C01222321F475
:1001C0009F5F90930C0101C29923B9F091E0909345
:1001D0000F0190930D0110920E0110922B011092BD
:1001E0002A0110922901109228018FEF80931001AB
:1001F00090930B0110920701E8C180910901909141
:100200000A012FEF8F3F920709F4DFC10196909307
:100210000A0180930901D9C180910D01882309F455
:100220006FC0222349F080910B018F5F80930B01F7
:100230008C3908F44DC1BDC020910C01822F87502C
:10024000853018F087508930E8F490910B01892FA0
:100250008750853018F087508930A0F464E370E04F
:10026000909306012C502B3018F09C509B3030F4AA
:100270001092050180E48093070108C081E080931B
:10028000050104C010920F0160E070E080910F0141
:10029000882329F081E191E041E150E0BDD2109244
:1002A000100180912101482F50E080FF21C08091F2
:1002B00011018731E9F08930D9F020910B0180914B
:1002C0001301821760F430E090E0880F991F8217C5
:1002D00093072CF056954795842F809507C0809101
:1002E0000501882329F456954795842F8170FCDEFB
:1002F00081E080930C0110920B0110920D01E8C077
:1003000080910E01882309F4D6C0222309F458C035
:100310005091100160911E015617A9F480911F01A0
:10032000813089F48091210180FD0AC090910C01F7
:10033000809116019817E8F1809117018917C8F18B
:1003400010921F01C5C040910B014F5F40930B01FC
:100350008091210180FF1AC0242F30E08091150187
:1003600090E0880F991F2817390784F0252F30E077
:10037000862F90E002972817390744F080911F01DB
:10038000882321F481E080931F011AC04C3908F4BE
:100390009FC0252F30E0862F90E00197281739075E
:1003A00041F480911F01882321F45F5F5093100175
:1003B0008FC010920F0110920C0110920B0188C097
:1003C00080912101282F30E090910C0180FF42C0E4
:1003D000809113018917B0F436952795822F809567
:1003E000817082DE8091210190E0969587958170E1
:1003F0007BDE8091210190E09695879581708093B6
:10040000050123C0809112019817D8F020910601B0
:1004100080911501821780F430E090E0880F991FD9
:10042000821793074CF090E080910501882309F42E
:1004300091E09093050102C090910501892F54DE4F
:1004400004C010920F0110920B0180910B01809358
:10045000060114C080911201981798F08091130141
:10046000891778F020910B0180911401281748F02A
:1004700080911501821728F081E036DE10920E017E
:1004800018C080911601981780F080911701891784
:1004900060F090910B0180911801981730F08091D5
:1004A0001901891710F080E0E8CF10920F01109227
:1004B0000B0181E005C0222331F480910C018F5F94
:1004C00080930C0105C081E080930E0180930B01A5
:1004D00080910F01882309F478C0909110018091D8
:1004E0001E01981709F071C080911F01882309F03F
:1004F0006CC0609100017091010120912A0130913E
:100500002B016217730769F48091090190910A0128
:100510008052934030F4809108018F5F80930801EE
:1005200002C01092080181E08093040180911101C2
:100530008093220140912801509129015093240178
:1005400040932301873049F48091070190E0822B8A
:10055000932B90932B0180932A0120912A013091B3
:100560002B013093260120932501809104018823DB
:1005700011F16217730799F48091020190910301C0
:100580008417950761F48091090190910A018C5DAF
:10059000954028F480912701816080932701509332
:1005A0000301409302013093010120930001109256
:1005B0000A011092090110920F0110922B01109262
:1005C0002A0110920C0110920B01809104010895F0
:1005D0001F920F920FB60F9211248F939F938091C9
:1005E000B90090E08C7F90708032910551F181329A
:1005F000910534F48830910561F0489701F50BC0FE
:1006000080339105F1F088339105B1F08897B9F402
:1006100008C082E303C010922D0181E08093BB00EB
:100620000EC080912D018F5F80932D01823049F0A3
:1006300080912C018F70F2CF85E88093BC0085E813
:1006400001C085E98093BC009F918F910F900FBEF0
:100650000F901F90189592E19093B80091E09093BD
:10066000B9009FEF9093BB0095EA9093BC00109265
:100670002D0180932C0108951F920F920FB60F92B7
:1006800011248F9381E080932E018F910F900FBEE4
:100690000F901F90189557985F9A56985E9A5598A4
:1006A0005D9A54985C9A78948091680084608093F5
:1006B000680080916D00806F80936D0083E687BD38
:1006C00082E084BD85BD80916E00826080936E0063
:1006D000D6DC83B7817F83BF83B7816083BF889572
:1006E00083B78E7FF8CF1F920F920FB60F9211240F
:1006F0002F933F934F935F936F937F938F939F932A
:10070000AF93BF93EF93FF934BDD1092350110929F
:100710003401109236011092310181E391E0B2DC94
:100720008823B1F18091360180FD32C08091310182
:10073000823041F4809134019091350182319105EC
:1007400061F409C0873031F5809134019091350111
:100750008C30910531F481E018C08E31910531F46F
:1007600003C08032910531F484E00FC083309105DD
:1007700031F403C08132910529F488E006C0019765
:1007800049F402C00D9731F482E080932F0102C03A
:1007900010922F0180912E01882399F08F5F809312
:1007A0002E018A3F70F010922E0189B190E0809561
:1007B000909524E0959587952A95E1F78F70809321
:1007C00030019091300180912F01982BA1F082E1AE
:1007D0008093B80081E08093B9008FEF8093BB00D5
:1007E00085EA8093BC0010922D0190932C01109209
:1007F000300110922F01FF91EF91BF91AF919F9126
:100800008F917F916F915F914F913F912F910F90B9
:100810000FBE0F901F901895FB01DC0102C00590E0
:0E0820000D9241505040D8F70895F894FFCF44
:04082E00FFFFFFFFCA
:00000001FF
